:100000002FC100000C94F9130C9424140C944F1479
:100010000C947A140C94A5140C94D0140C94FB1426
:100020000C9426154EC100004CC100004AC10000CE
:1000300048C1000046C1000044C1000042C10000A8
:1000400040C100003EC100003CC100003AC10000B8
:1000500038C1000036C1000034C100000C945D15A9
:1000600030C100000C94B4120C94EA122AC10000B2
:1000700028C1000026C1000024C1000022C10000E8
:1000800020C100001EC100001CC100001AC10000F8
:1000900018C1000016C1000014C100000C94F11A30
:1000A00010C100000EC100000C9499180AC1000094
:1000B00008C1000006C1000004C1000002C1000028
:1000C00000C10000FEC00000FCC00000FAC000003B
:1000D000F8C00000F6C00000F4C00000F2C000004C
:1000E000F0C00000D3139D13A513B113BE13DF138B
:1000F000EC13671C6C1C711C7B1C851CFE1C8F1C6C
:10010000971C9F1CA91CB31CBD1CCC1CD61CFE1C20
:10011000E01CEA1CF41C1F1D221D111D151D1B1DBA
:10012000591D261D2A1D301D341D381D3E1D421D22
:10013000461D591D4C1D501D541D00000A0B02097F
:100140000C0D0E0807030401000000000000000071
:10015000000000000000000000000000000000009F
:10016000000000000000121110000000000000005C
:10017000000000000000000000000000000000007F
:1001800001021020200808102040102040800201A9
:10019000020108040201010204081020408080408E
:1001A000201008040201800402018040201008048D
:1001B000020108040201010204081020408001022B
:1001C00004081020408005050505070508080808F3
:1001D000020202020A0A08080404040401010101DF
:1001E00001010101030303030303030304070707DA
:1001F0000C0C0C0C0C0C0C0C02020202060606067F
:10020000060606060B0B0B0B0B0B0B0B000020005E
:100210002300260029002C002F00320000010000DE
:1002200003010601090100002200250028002B001F
:100230002E003100340002010000050108010B010D
:1002400000002100240027002A002D003000330088
:1002500001010000040107010A01880D1C130A1A9C
:1002600011241FBECFEFD1E2DEBFCDBF00E00CBF37
:1002700015E0A0E0B2E0ECE7F1E400E00BBF02C063
:1002800007900D92AC33B107D9F72CE0ACE3B5E0A1
:1002900001C01D92A437B207E1F712E0C0E6D2E038
:1002A00000E006C022970109FE010BBF0E94301E2C
:1002B000CA35D10780E00807A9F70E9452150C94AF
:1002C000BC209ECEFC01DB0182818C938381119640
:1002D0008C931197848112968C9312978581139633
:1002E0008C931397868114968C9314978781159617
:1002F0008C931597808516968C9316978185179603
:100300008C9388E090E00895FC01DB014C9150E073
:1003100060E070E0428353836483758311968C910F
:100320001197582B428353836483758312968C9163
:100330001297682B428353836483758313968C9141
:100340001397782B428353836483758314964C915F
:10035000149750E060E070E04683578360877187B0
:1003600015968C911597582B468357836087718714
:1003700016968C911697682B4683578360877187F2
:1003800017968C91782B468357836087718788E016
:1003900090E0089587E192E0089585E292E0089563
:1003A0006F927F928F929F92AF92BF92CF92DF9285
:1003B000EF92FF920F931F93CF93DF93FC01DB012A
:1003C0008C9190E09383828311962C911197922BBC
:1003D0009383828312964D915D916D917C911597D7
:1003E0005D0186E0A80EB11C8A019B010A5F1F4FC8
:1003F0002F4F3F4F6501CA1ADB0AE12CF12CC016C2
:10040000D106E206F30640F4E501F9905E01CE0163
:100410000297EC01F882EECFED01C40FD51F1D82CB
:10042000CD01059695838483ED01C40FD51FCE8041
:10043000DF80E884F984465F5F4F3D01640E751EDE
:100440008A01222717FD2095322F0C0D1D1D2E1D10
:100450003F1D43018A1A9B0AA12CB12C80169106DC
:10046000A206B30640F4E30169913E01CE01029772
:10047000EC016883EECFC40ED51E9D012C0D3D1DF1
:10048000C9010197EC011882415051094A0F5B1FC5
:1004900057834683E901088119812A813B81D4E091
:1004A000CD0ED11C3D016C0C7D1CA601662757FDAD
:1004B0006095762F400F511F621F731F43018A1AE8
:1004C0009B0AA12CB12C84169506A606B70640F40B
:1004D000E301F9903E01CE010297EC01F882EECFE4
:1004E0000C0D1D1D9D01200F311FC9010197EC014D
:1004F0001882D1E0CD1AD108CA0EDB1ED186C08683
:10050000D90111968C91119712964C91129750E047
:1005100060E070E0BA0155274427582B8C91482B96
:1005200013968C91782B4287538764877587C8010F
:100530000496DF91CF911F910F91FF90EF90DF9084
:10054000CF90BF90AF909F908F907F906F900895C5
:1005500086E492E008958FE592E00895AF92BF920D
:10056000CF92DF92EF92FF921F93CF93DF939C0184
:10057000FB018081D90112968C9381819281A381A4
:10058000B4815B01C5E0AC0EB11CAC01BD014B5F99
:100590005F4F6F4F7F4F6501CE1ADF0AE12CF12CC0
:1005A000C416D506E606F70650F4E501D9905E01BB
:1005B0007E01D2E0ED1AF108E701D882ECCFEF011D
:1005C000C80FD91F1C823496E901FC83EB83059682
:1005D000DF91CF911F91FF90EF90DF90CF90BF9070
:1005E000AF90089580E892E0089583E992E008953D
:1005F00086E994E0089584EB92E00895FC0122815D
:100600008381FB012083818382E090E00895FB01D8
:10061000218130E0322F22274081242BFC013383BB
:10062000228382E090E0089585ED92E0089584EEC3
:1006300092E0089585E093E008958BE193E00895BA
:100640008CE393E0089580E593E00895ECEAF5E00B
:10065000808191810196918380830895E8EAF5E095
:100660008081918101969183808308958E579B4F5D
:10067000FC01808108950F931F93CF93DF93EC01CA
:100680008C010A5F1F4FC801C2DFEA85FB85C801E4
:10069000DF91CF911F910F911994FC01848595856D
:1006A000089585ED92E0089584EE92E00895AF926A
:1006B000BF92CF92DF92EF92FF920F931F93CF934F
:1006C000DF93EC017B018A81DB018C938B81119696
:1006D0008C93EC81FD81DF010D900020E9F7CD01C5
:1006E00001976C01CE1ADF0AC601A0E0B0E0FB0161
:1006F00082839383A483B5836C817D81A601C70126
:1007000006960E948C1FEE81FF81DF010D90002074
:10071000E9F7CD0101975C01AE1ABF0AF701EC0DB4
:10072000FD1D850120E030E0068317832087318797
:100730009AE0C90ED11C6E817F81A501C7018C0D85
:100740009D1D0E948C1FCA0CDB1CE885F985DF010A
:100750000D900020E9F7CD0101975C01AE1ABF0AA8
:10076000F701EC0DFD1D850120E030E000831183D1
:100770002283338394E0C90ED11C68857985A50155
:10078000C7018C0D9D1D0E948C1FAC0CBD1C3A85B1
:100790002B859C858D85F701EA0DFB1D3083218318
:1007A00092838383C5010496DF91CF911F910F91AE
:1007B000FF90EF90DF90CF90BF90AF9008950F9390
:1007C0001F93CF93DF93DC01FB0112968C9112975C
:1007D000808313968D919C911497EC0109900020D1
:1007E000E9F72197C81BD90B8E0120E030E0018387
:1007F00012832383348313966D917C911497AE01F9
:10080000CF0105960E948C1FCE010596DF91CF91F6
:100810001F910F910895BF92CF92DF92EF92FF92B6
:100820000F931F93CF93DF93EC017B018A81DB0150
:100830008C9311961C92119712961C9212971396F4
:100840001C92FB01379640E024E030E05A81C90158
:1008500004964517E0F4AF81B88524E0429FA00DCF
:10086000B11D11246C9111965C91119712963C91D7
:10087000129713962C91DF0113976C9311965C934A
:1008800011963C9320839C014F5F3496DFCF4985BE
:10089000F701E20FF31F408311821282138220E0DE
:1008A0003985F701E80FF91F04962317B0F4AE85D8
:1008B000BF8534E0239FA00DB11D11246C911196CA
:1008C0005C91119712964C91129713963C9160830C
:1008D0005183428333832F5FE3CF288920831182A2
:1008E00012821382B12C2889B21698F54B2D50E054
:1008F000440F551FEB89FC89E40FF51F0190F0812F
:10090000E02DDF010D900020E9F79D012150310914
:100910006901CE1ADF0AF701E80FF91F860120E00E
:1009200030E000831183228333838C010C5F1F4FDF
:10093000EB89FC89E40FF51F60817181A601C70175
:10094000800F911F0E948C1FC601800F911FB394CE
:10095000CACFDF91CF911F910F91FF90EF90DF9061
:10096000CF90BF9008954F925F927F928F929F9207
:10097000AF92BF92CF92DF92EF92FF920F931F93AD
:10098000CF93DF93EC018B01DB01FC908A818F1503
:1009900050F4B4E0FB9EB00111248F8198850E9431
:1009A000A81E98878F83FA82F8013796F12C44E0CD
:1009B00050E09E012D5F3F4F8A81BA016C5F7F4FEF
:1009C0006B01F81660F5408150E060E070E0742F34
:1009D000662755274427DF0113978C91482B1196E2
:1009E0008C91582B11968C91682B4B835C836D8373
:1009F0007E83A6016F81788584E0F89E600D711D6D
:100A00001124D9018D909D90AD90BC90DB018D9209
:100A10009D92AD92BC921397F3943496CDCFF8018A
:100A2000E40FF51FF08089858F1550F484E0F89E5F
:100A3000B00111248E859F850E94A81E9F878E87F6
:100A40009601F98680E0FE013A969985D801A20FB9
:100A5000B31FA9014C5F5F4F6A01891748F51196D2
:100A60009C91119712964C91129750E060E070E0C3
:100A7000BA0155274427592B9C91492B13969C91D9
:100A8000792B4A875B876C877D879601AE85BF850A
:100A900094E0899FA00DB11D112440815181628194
:100AA00073814D935D936D937C9313978F5FCDCF3F
:100AB000FC9088898F1550F46F2D70E0660F771FBA
:100AC0008B899C890E94A81E9C8B8B8BC601F88AFF
:100AD000712C2E0151E1450E511C2889721608F027
:100AE00044C0F801E80FF91FC080D180E280F38094
:100AF0000496F801E80FF91FAC01662757FD6095D1
:100B0000762F4C0D5D1D6E1D7F1D9F01201B310B2F
:100B10004901A12CB12C84169506A606B70638F417
:100B2000B1909F0122503109D901BC92EECFC80E7D
:100B3000D91EF801EC0DFD1D319710829C0121504A
:100B40003109200F311F3A8B298BC6013B892C8933
:100B5000E32FF22FE70DF11DE70DF11DD2012D91CD
:100B60003C91318320837394B8CFDF91CF911F9153
:100B70000F91FF90EF90DF90CF90BF90AF909F903C
:100B80008F907F905F904F900895CF93DF93EC010B
:100B90006A817B8183E79AE00E94AF168A819B81FC
:100BA000892B41F460E971E083E79AE0DF91CF910E
:100BB0000C940E17DF91CF910895CF93DF93EC0142
:100BC0006A817B8183E79AE00E9478168A819B8103
:100BD000892B41F460E971E083E79AE0DF91CF91DE
:100BE0000C94E616DF91CF9108951F93CF93DF9376
:100BF0008091FB0A12E1189FC00111248B53954F7D
:100C00000E9411188823E9F08091FB0A90E0EC0122
:100C1000CC0FDD1FCC0FDD1FC754D54F189FF0013F
:100C2000199FF00D1124EB53F54F60817181828182
:100C3000938129E330E040E050E00E94FE1D3B83B9
:100C40002A83DF91CF911F910895AF92BF92CF92E7
:100C5000DF92EF92FF920F931F93CF93DF9300D019
:100C60001F921F92CDB7DEB78C016B016436710500
:100C70003CF0FC01EE57FB4F8081882309F479C0DA
:100C8000DA01ED91FC910190F081E02DB801655EF3
:100C90007D4FCA0119957C015801BCEEAB1ABDEF1E
:100CA000BB0A2FEFF50120832EEF3196208331967A
:100CB000808331969083890F809531968083319619
:100CC000C0823196D08285E090E020E030E0A7013C
:100CD000495F5F4F8417950750F4F801E80FF91F3B
:100CE000EC5EFD4F6081260F311D0196F3CFF8E0D9
:100CF000EF0EF11C400F511FFA01EC5EFD4F2095E5
:100D0000208321E0E21622E0F206C8F46501C60164
:100D10008A199B098E159F0584F4D80112968D912E
:100D20009C911397F60161916F01DC01ED91FC91AB
:100D30000190F081E02D1995EACFC7011CC08EEC1F
:100D400094E09A83898383E08B8381E793E09D839A
:100D50008C83D801ED91FC910190F081E02DAE01E2
:100D60004F5F5F4F67E070E0C80119958FEF9FEF0D
:100D700002C080E090E00F900F900F900F900F90C6
:100D8000DF91CF911F910F91FF90EF90DF90CF9067
:100D9000BF90AF9008958F929F92AF92BF92CF92E3
:100DA000DF92EF92FF920F931F93CF93DF93EC01AB
:100DB000CB01BA018B019C0147E135952795179529
:100DC00007954A95D1F711272227332701151105D9
:100DD0002105310521F000581C4F2F4F3F4F18823D
:100DE00019821A826B017C0145E0CC0CDD1CEE1CE3
:100DF000FF1C4A95D1F7CB826B017C0153E0F5943F
:100E0000E794D794C7945A95D1F7CC826B017C01B3
:100E1000EBE0F594E794D794C794EA95D1F7CD82A7
:100E200068017901F4E0CC0CDD1CEE1CFF1CFA9586
:100E3000D1F74B015C01A3E1B594A79497948794F3
:100E4000AA95D1F7482D4F704C294E83680179013E
:100E5000B4E0F594E794D794C794BA95D1F720E01D
:100E600030E0A9010E94431E87FD02C0CF8203C06B
:100E70008C2D80688F8388E090E0DF91CF911F9167
:100E80000F91FF90EF90DF90CF90BF90AF909F9029
:100E90008F900895EF92FF920F931F93CF93DF935C
:100EA0008C01EB01FC014281538164817581CE018B
:100EB00072DF7C01F8014681578160857185CE0122
:100EC0008E0D9F1D68DFE80EF91EF80142855385DF
:100ED00064857585CE018E0D9F1D5DDF8E0D9F1D76
:100EE000DF91CF911F910F91FF90EF900895EF92B6
:100EF000FF920F931F93CF93DF938C017B01029698
:100F0000C9DFEC01B701680F791FC8014096C2DF45
:100F10008C0F9D1FDF91CF911F910F91FF90EF904C
:100F200008950F931F93FC01DB0103810295069541
:100F3000077010E020E030E00D931D932D933C935B
:100F40001397448150E060E070E093E0440F551F38
:100F5000661F771F9A95D1F7402B512B622B732B6D
:100F60004D935D936D937C931397058110E020E082
:100F700030E08BE0000F111F221F331F8A95D1F73D
:100F8000042B152B262B372B0D931D932D933C9360
:100F9000139746814F7050E060E070E093E1440F9A
:100FA000551F661F771F9A95D1F7402B512B622B47
:100FB000732B4D935D936D937C93139786818295EC
:100FC0008F7007810F7710E020E030E094E0000F91
:100FD000111F221F331F9A95D1F7082B01151105F8
:100FE00021053105A1F0005813402109310987E19D
:100FF000000F111F221F331F8A95D1F7042B152BC9
:10100000262B372B0D931D932D933C93139707811C
:10101000007810E020E030E0302F22271127002751
:101020004D915D916D917C911397402B512B622BCB
:10103000732B4D935D936D937C93139788E090E0B1
:101040001F910F910895EF92FF920F931F93CF93EB
:10105000DF938C01EB01BC016E5F7F4FCE0161DF3E
:101060007C01B8016A5F7F4FCE018E0D9F1D59DF55
:10107000E80EF91EB801665F7F4FCE018E0D9F1DF1
:1010800050DF8E0D9F1DDF91CF911F910F91FF902B
:10109000EF900895EF92FF920F931F93CF93DF93FA
:1010A0008C017B010296CFDFEC01B701680F791F3D
:1010B000C8014096C8DF8C0F9D1FDF91CF911F9113
:1010C0000F91FF90EF900895CF93DF93AB01EC0168
:1010D000AE81BF81ED91FC9111976C817D81019072
:1010E000F081E02DCD01DF91CF911994DC01ED91DC
:1010F000FC910190F081E02D1994AC0120E030E0EA
:10110000FA01EC5EFB4F0190F081E02DEF2B91F4A2
:10111000F901E65FFD4FEE0FFF1FE80FF91F718326
:10112000608323583F4FFB01358324839783868355
:1011300081E008952F5F3F4F4E5F5F4F29313105AA
:10114000F9F680E008950F931F9383E79AE00E94D9
:1011500055164091B6055091B7056091B80570914C
:10116000B90526E08091B4059091B5050E94521210
:1011700010922B0A10922A0A10922D0A10922C0A11
:101180001092310A1092300A10922F0A10922E0AF1
:10119000E8EFF9E080E090E021913191232B81F498
:1011A000FC01EE0FFF1FE850F64F25E63AE03183D1
:1011B00020838C599F4F9093680A8093670A04C0DC
:1011C00001968931910541F7E8EFF9E080E090E080
:1011D00021913191232B81F4FC01EE0FFF1FE85088
:1011E000F64F27E53AE0318320838C599F4F909347
:1011F0005A0A8093590A04C001968931910541F732
:1012000065E87AE082EB95E078DF6BE77AE082EBE5
:1012100095E073DF6CE975E082EB95E06EDF62E9E3
:1012200075E082EB95E069DF66E475E082EB95E0BE
:1012300064DF6CE375E082EB95E05FDF6BE97AE0F9
:1012400082EB95E05ADF65EA7AE082EB95E055DFC4
:101250006FEA7AE082EB95E050DF0E94A715655BAC
:101260007F4F8F4F9F4F6093970A7093980A809398
:10127000990A90939A0A0E94A715655B7F4F8F4F3A
:101280009F4F6093AE057093AF058093B005909328
:10129000B1050E94A7158B019C01055B1F4F2F4FC5
:1012A0003F4F0093FC0A1093FD0A2093FE0A3093EF
:1012B000FF0A8B019C0107591F4F2F4F3F4F00938F
:1012C000000B1093010B2093020B3093030BDC01F6
:1012D000CB0189579F4FAF4FBF4F8093040B909323
:1012E000050BA093060BB093070B0E94A715665A37
:1012F0007F4F8F4F9F4F60938C0570938D05809328
:101300008E0590938F0543E050E066E273E085E040
:101310000E94881343E050E06EE273E084E00E9494
:1013200088131092AD051092AC051092A905109289
:10133000A80580EB9BE00E94861968E670E080EBD0
:101340009BE00E9499196BE670E080EB9BE0CEDE9B
:1013500060E070E080EB9BE0C9DE61E080EB9BE049
:101360001F910F910C949A190F931F93CF93DF93B2
:10137000CDB7DEB72A970FB6F894DEBF0FBECDBF4C
:101380008C0186EB94E09A8389831B821C821D82E8
:101390001E821F82188619861A86D801ED91FC914B
:1013A0000190F081E02DAE014F5F5F4F6AE070E089
:1013B000C80119950E94A715F80160877187828777
:1013C00093872A960FB6F894DEBF0FBECDBFDF918C
:1013D000CF911F910F9108954F925F926F927F92DC
:1013E0008F929F92AF92BF92CF92DF92EF92FF9235
:1013F0000F931F93CF93DF93CDB7DEB72E970FB622
:10140000F894DEBF0FBECDBF8C0182EC94E09A83CE
:1014100089831C821B8289EA93E09E838D8398874F
:101420008F839A8789871B861C861D861E86580196
:1014300082E3A80EB11C7801412CE2E05E2E612C03
:10144000712C6701ACEECA1AABEFDA0AD601ED9146
:10145000FC913097B9F1848195819C838B83808145
:1014600091819E838D8382819381DC01ED91FC913A
:101470000480F581E02D199598878F83D601ED9131
:10148000FC9182819381DC01ED91FC910680F781D2
:10149000E02D19959A8789874B865C866D867E86B6
:1014A000F80180819181F601A081B18118966D913A
:1014B0007C911997DC01ED91FC91AE014F5F5F4F7C
:1014C000C8011995B2E0EB0EF11CEA14FB0409F017
:1014D000B8CF7801412C72E0572E612C712C670136
:1014E000EAEBCE1AEBEFDE0AF601A081B18110978C
:1014F000E1F112968D919C9113979C838B831496A6
:101500008D919C9115979E838D83ED91FC91119700
:101510000480F581E02DCD01199598878F83D60140
:101520008D919C91DC01ED91FC910680F781E02D7D
:1015300019959A8789874B865C866D867E86D80149
:10154000ED91FC9180809180F60180819181DC0198
:10155000ED91FC910280F381E02D1995AE014F5F72
:101560005F4FBC01C801F4011995F2E0EF0EF11CC8
:10157000EA14FB0409F0B3CFF801EE57FB4F81E00A
:1015800080832E960FB6F894DEBF0FBECDBFDF91DD
:10159000CF911F910F91FF90EF90DF90CF90BF9070
:1015A000AF909F908F907F906F905F904F90089535
:1015B0008F929F92AF92BF92CF92DF92EF92FF9263
:1015C0000F931F93CF93DF93CDB7DEB72A970FB654
:1015D000F894DEBF0FBECDBF8C015B0186EB94E0BB
:1015E0009A8389831B821C821D821E821F82188619
:1015F00019861A860E94A7156B017C01F801808567
:101600009185A285B385C81AD90AEA0AFB0AB501F1
:10161000CE0101960E948401F8EE8F2EF3E09F2EFA
:10162000A12CB12CC701B601A50194010E94FE1D99
:1016300069017A019B01AC018B819C81AD81BE81E6
:101640008C0D9D1DAE1DBF1D8B839C83AD83BE8302
:1016500060E472E48FE090E00E94C81DCF80D884DF
:10166000E984FA84C60ED71EE81EF91ECF82D886FA
:10167000E986FA860E94A715CB80DC80ED80FE808B
:10168000F1E0CF1AD108E108F108A50194010E9408
:10169000FE1D49015A019B01AC01C818D908EA088E
:1016A000FB08F801C486D586E686F786CF80D88405
:1016B000E984FA84F6E3DF1AF5E6EF0AF4ECFF0AB0
:1016C00060E472E48FE090E00E94C81DC61AD70A59
:1016D000E80AF90AF801C08AD18AE28AF38AB801D5
:1016E000605F7F4FC8010C960E94C4180E94A71526
:1016F000F801E957FB4F60837183828393832A96B5
:101700000FB6F894DEBF0FBECDBFDF91CF911F9112
:101710000F91FF90EF90DF90CF90BF90AF909F9090
:101720008F9008952F923F924F925F926F927F9287
:101730008F929F92AF92BF92CF92DF92EF92FF92E1
:101740000F931F93CF93DF93CDB7DEB760970FB69C
:10175000F894DEBF0FBECDBF4C010E94A7156B01F0
:101760007C01940129573B4F3E832D83F9018081F1
:101770009181A281B381A7019601281B390B4A0BE5
:101780005B0BDA01C901893F9A42A105B10510F04E
:1017900035971082A40148585B4F588B4F87DA0168
:1017A0008D919C91892B79F0F401E557FB4F808155
:1017B0009181A281B3818C159D05AE05BF0518F4FA
:1017C000FA01118210823401F0E86F1AFBEF7F0AF0
:1017D000940124583B4F3A832983A4014E575B4F11
:1017E00058874F832C5E3F4F3C872B87435F5F4F6B
:1017F0005E874D87840106581B4F1601270154E16F
:10180000250E311C411C511C540184E1A80EB11C51
:10181000940122583B4F3C832B83A40145575B4FD7
:101820005A874987D40112968D919C911397DC01B8
:10183000ED91FC910680F781E02D19959C0197FDB3
:1018400029C1F30180819181820F931F918380834D
:10185000AF85B8894D915C9147305105E1F4EB813A
:10186000FC8180819181AC014F5F5F4F5183408348
:10187000F401E80FF91F248BD8018D919C911197E9
:1018800001978D939C93892B09F0BECF28E030E01F
:10189000EF85F88986C04115510519F52F3F3105AF
:1018A00069F481E090E0AF85B8898D939C93E985D8
:1018B000FA852082318242825382B4CF0E94A715DA
:1018C0006C197D098E099F096630710581059105A6
:1018D00008F49ACFF401EE57FB4F10828EEF9FEF82
:1018E000FEC04130510591F42E3F310519F482E0DC
:1018F00090E02EC0EF85F88911821082AF81B88503
:101900008C91811181CFC4012FDD8CCF42305105E4
:1019100089F4F80131832083AB81BC811D921C9234
:1019200083E090E0EF85F88991838083D3012D9344
:101930003C9378CF4330510581F4322F2227F801B0
:1019400080819181820F931F9183808384E090E056
:10195000AF85B8898D939C9365CF4430510599F438
:1019600060E071E00E94EB1D8F3F910539F485E046
:1019700090E0EF85F8899183808354CFAF85B88953
:101980001D921C924FCF4530510571F4E981FA81C7
:101990003183208386E090E0AF85B8898D939C9356
:1019A000F301318320833ECF46305105D1F4322FED
:1019B0002227A981BA818D919C911197820F931F43
:1019C0008D939C9327E030E0EF85F8893183208365
:1019D000D8018D919C91892B09F016CF28E030E039
:1019E000E0CF4830510509F00FCFAF85B8891D927F
:1019F0001C9260E071E00E94EB1D8F3F910509F0A1
:101A000003CFA981BA81ED91FC913097A1F4C40173
:101A1000ABDCC401E1DCF401ED57FB4FC082D182A5
:101A2000E282F382ED81FE81C082D182E282F38282
:101A30008FEF9FEF54C0EA30F10521F4B501C401E6
:101A4000B7DDF0CEE630F10551F4B5018B859C850C
:101A50000E94B30481E0AD85BE858C93E3CEEB306C
:101A6000F10521F4EF81F8851082DCCEE154FE4FC0
:101A7000EE0FFF1FE80DF91D80819181009709F499
:101A8000C3CEDC01ED91FC910190F081E02DB50118
:101A90001995C8CEF401EE57FB4F80818823E9F0F9
:101AA00084010D571B4FF80180819181A281B38180
:101AB000A7019601281B390B4A0B5B0BDA01C90100
:101AC000853C9940A105B10540F0C4014DDCD80129
:101AD000CD92DD92ED92FC92139780E090E06096BB
:101AE0000FB6F894DEBF0FBECDBFDF91CF911F912F
:101AF0000F91FF90EF90DF90CF90BF90AF909F90AD
:101B00008F907F906F905F904F903F902F900895AF
:101B1000CF93DF9328EC30E043E365E385EC9AE074
:101B20000E944C1728EC30E04FE261E387ED9AE029
:101B30000E944C1728EC30E04BE26DE289EE9AE00F
:101B40000E944C17E9EBFAE086EE94E0C6EED4E092
:101B5000918380831382128234962AE0E53CF20757
:101B6000A9F78AEA93E090939C0A80939B0A89EBF9
:101B70009AE090939E0A80939D0A1092A40A109274
:101B8000A30A8AEB93E09093A60A8093A50A8DEBB3
:101B90009AE09093A80A8093A70A1092AE0A109236
:101BA000AD0A8AEC93E09093B00A8093AF0A81EC7F
:101BB0009AE09093B20A8093B10A1092B80A1092F8
:101BC000B70AD093940AC093930A1092960A10927F
:101BD000950AD093900AC0938F0A1092920A10929D
:101BE000910A8AED93E09093860A8093850A83E9AF
:101BF0009AE09093880A8093870A10928E0A109236
:101C00008D0A86EF93E090937C0A80937B0A8FE89D
:101C10009AE090937E0A80937D0A1092840A109233
:101C2000830A83E79AE00E9443162AE035E0309366
:101C3000660A2093650AD0936C0AC0936B0A1092CF
:101C40006E0A10926D0A85EC95E09093700A80936D
:101C50006F0A81E090E09093720A8093710A41E1EB
:101C600054E050936A0A4093690A3093580A2093CB
:101C7000570AD0935E0AC0935D0A1092600A1092D0
:101C80005F0A2DED35E03093620A2093610A90934C
:101C9000640A8093630A8BE294E090935C0A8093D9
:101CA0005B0A86E195E09093B3058093B20588E0E6
:101CB0009BE09093B5058093B40580E091EEA0E0A1
:101CC000B0E08093B6059093B705A093B805B093A4
:101CD000B9051092340A8AED94E09093430A8093F8
:101CE000420A1092440A10924A0A1092490A10922B
:101CF0004B0A1092510A1092500A1092520A1092F6
:101D0000560A1092550AE6ECF9E01192119289E018
:101D1000E83FF807D1F7E8EFF9E0119211922AE0D5
:101D2000EA32F207D1F7E6ECF5E0119287E0E63C03
:101D3000F807D9F7E6ECF7E0119229E0E63CF20764
:101D4000D9F786EE94E09093AB058093AA051092A4
:101D5000AD051092AC059093A7058093A60510924F
:101D6000A9051092A80584E494E090939D058093C2
:101D70009C058AEA95E090939F0580939E051092BA
:101D8000A5051092A4058FE594E0909393058093A8
:101D9000920586EA95E090939505809394051092BC
:101DA0009B0510929A052EEF34E030936F05209337
:101DB0006E0582EF94E09093710580937005109208
:101DC00072051092730510927405109275051092A9
:101DD0007605109277051092780510927905109289
:101DE0007A0510927B0510927C0510927D059093E8
:101DF0007F0580937E0510928005109281051092D8
:101E00008205109283051092840510928505109228
:101E10008605109287051092880510928905109208
:101E20008A0510928B0530935105209350059093AD
:101E30005305809352051092540510925505109247
:101E40005605109257051092580510925905109298
:101E50005A0510925B0510925C0510925D05109278
:101E60005E0510925F059093610580936005109266
:101E70006205109263051092640510926505109238
:101E80006605109267051092680510926905109218
:101E90006A0510926B0510926C0510926D058BE728
:101EA00094E090934705809346058EE695E09093E5
:101EB00049058093480510924F0510924E0589E818
:101EC00094E090933D0580933C0580E595E09093E8
:101ED0003F0580933E051092450510924405DF9121
:101EE000CF910895CF9368E670E080EB9BE00E946D
:101EF00099196BE370E080EB9BE0F8D860E080EB31
:101F00009BE00E949A1921E030E04EE050E068E644
:101F100070E080EB9BE00E94091A80EB9BE00E943E
:101F2000F918C82F80EB9BE00E94F91860E070E080
:101F30007C2F862B972BBC01882777FD8095982FC7
:101F40000E94491E60937205709373058093740517
:101F50009093750580EB9BE00E94F918C82F80EBE9
:101F60009BE00E94F91860E070E07C2F862B972B95
:101F7000BC01882777FD8095982F0E94491E6093A9
:101F8000760570937705809378059093790580EBBB
:101F90009BE00E94F918C82F80EB9BE00E94F91883
:101FA00060E070E07C2F862B972BBC01882777FDA3
:101FB0008095982F0E94491E60937A0570937B0547
:101FC00080937C0590937D0580EB9BE00E94F9183F
:101FD000C82F80EB9BE00E94F91820E030E03C2FF6
:101FE000822B932B909391058093900580EB9BE03F
:101FF0000E94F918C82F80EB9BE00E94F91860E05E
:1020000070E07C2F862B972BBC01882777FD80956D
:10201000982F0E94491E6093620570936305809318
:1020200064059093650580EB9BE00E94F918C82F2A
:1020300080EB9BE00E94F91860E070E07C2F862B1B
:10204000972BBC01882777FD8095982F0E94491E09
:1020500060936605709367058093680590936905A2
:1020600080EB9BE00E94F918C82F80EB9BE00E9458
:10207000F91860E070E07C2F862B972BBC01882735
:1020800077FD8095982F0E94491E60936A05709392
:102090006B0580936C0590936D0560E575E08CE3AE
:1020A00095E012D86EE675E086E495E0CF910CC815
:1020B0004F925F926F927F92BF92CF92DF92EF9298
:1020C000FF920F931F93CF93DF930CEF1AE09BE9DE
:1020D000C92E9AE0D92EC9EBDAE025ECE22E2AE0EF
:1020E000F22EB12C34D5F80140805180628073808B
:1020F0006415750586059705B8F0B301A201465A27
:102100005F4F6F4F7F4F4083518362837383BE0164
:10211000C6010E9464087FD7B092FB0A1B821A8214
:1021200065EF75E0C701ECD7B3940C5F1F4FFAE081
:10213000CF0ED11C249682E1E80EF11CE3E0BE1222
:10214000D1CF05D50091970A1091980A2091990A4C
:1021500030919A0A601771078207930768F183E745
:102160009AE08FD69093960A8093950A83E79AE037
:102170007DD69093920A8093910A63E97AE085E88C
:102180009AE00E9464086FE87AE08BE79AE00E9488
:1021900064088091970A9091980AA091990AB09149
:1021A0009A0A4E96A11DB11D8093970A9093980AA2
:1021B000A093990AB0939A0ACAD40091AE051091DF
:1021C000AF052091B0053091B10560177107820706
:1021D000930738F16AEA75E08CE995E00E9464089B
:1021E00066EA75E082E995E00E9464081092AD0508
:1021F0001092AC051092A9051092A8058091AE0529
:102200009091AF05A091B005B091B1054496A11D84
:10221000B11D8093AE059093AF05A093B005B09328
:10222000B10595D400918C0510918D0520918E05F6
:1022300030918F056017710782079307A0F052DE77
:1022400080918C0590918D05A0918E05B0918F05A0
:10225000C296A11DB11D80938C0590938D05A0930E
:102260008E05B0938F0582EB95E0DF91CF911F91A2
:102270000F91FF90EF90DF90CF90BF907F906F9085
:102280005F904F904FCAFC01818D228D90E0805C61
:102290009F4F821B91098F7399270895FC01918D9F
:1022A000828D981731F0828DE80FF11D858D90E0B9
:1022B00008958FEF9FEF0895FC01918D828D9817FF
:1022C00061F0828DDF01A80FB11D5D968C91928D1A
:1022D0009F5F9F73928F90E008958FEF9FEF089517
:1022E00083E193E1892B39F080E090E0892B19F0AC
:1022F0009AD1811125C080E090E0892B41F080E0E7
:1023000090E0892B21F00E94000081111CC080E028
:1023100090E0892B41F080E090E0892B21F00E9431
:102320000000811113C080E090E0892BA1F080E0D3
:1023300090E0892B81F00E94000081110AC008956D
:102340000E940000D8CF0E940000E1CF0E94000050
:10235000EACF0C9400000895FC01848DDF01A80FE2
:10236000B11DA35ABF4F2C91848D90E001968F73BD
:102370009927848FA689B7892C93A089B1898C91DC
:1023800080648C93938D848D981306C00288F389A2
:10239000E02D80818F7D80830895CF93DF93EC01C2
:1023A000888D8823C1F0EA89FB89808185FD05C07D
:1023B000A889B9898C9186FD0EC00FB607FCF5CFB0
:1023C000808185FFF2CFA889B9898C9185FFEDCFF7
:1023D000CE01C2DFE8CFDF91CF910895CF92DF9297
:1023E000FF920F931F93CF93DF931F92CDB7DEB76A
:1023F0006C0181E0D60158968C9358975B969C911E
:102400005B975C968C915C97981307C05096ED9102
:10241000FC915197808185FD2DC0F601038D10E060
:102420000F5F1F4F0F731127F02EF601848DF812E6
:1024300010C00FB607FCF9CFD6015096ED91FC9174
:102440005197808185FFF1CFC601698385DF69815E
:10245000ECCF838DE80FF11DE35AFF4F6083D60167
:102460005B960C935B975296ED91FC91539780810C
:1024700080620CC0D6015696ED91FC91579760830F
:102480005096ED91FC91519780818064808381E02A
:1024900090E00F90DF91CF911F910F91FF90DF900F
:1024A000CF900895BF92CF92DF92EF92FF92CF9399
:1024B000DF93EC016A017B01B22EE889F98982E0A1
:1024C0008083411581EE580761057105A1F060E038
:1024D00079E08DE390E0A70196010E94FE1D215056
:1024E0003109410951095695479537952795211589
:1024F00080E1380798F0E889F989108260E874E88B
:102500008EE190E0A70196010E94FE1D2150310945
:10251000410951095695479537952795EC85FD85D5
:102520003083EE85FF852083188EEC89FD89B0828B
:10253000EA89FB89808180618083EA89FB898081C7
:1025400088608083EA89FB89808180688083EA894A
:10255000FB8980818F7D8083DF91CF91FF90EF9009
:10256000DF90CF90BF9008951F920F920FB60F92F9
:1025700011240BB60F922F938F939F93EF93FF939A
:10258000E091180BF091190B8081E0911E0BF091F6
:102590001F0B82FD12C090818091210B8F5F8F7382
:1025A0002091220B821751F0E091210BF0E0E85FBF
:1025B000F44F958F8093210B01C08081FF91EF91A3
:1025C0009F918F912F910F900BBE0F900FBE0F9088
:1025D0001F9018951F920F920FB60F9211240BB6F1
:1025E0000F922F933F934F935F936F937F938F93AC
:1025F0009F93AF93BF93EF93FF9388E09BE0ACDE94
:10260000FF91EF91BF91AF919F918F917F916F91CA
:102610005F914F913F912F910F900BBE0F900FBE86
:102620000F901F90189588E09BE02DDE21E0892B0C
:1026300009F420E0822F089510920B0B10920A0BE0
:1026400088EE93E0A0E0B0E080930C0B90930D0B2C
:10265000A0930E0BB0930F0B80E295E09093090BC3
:102660008093080B85EC90E09093150B8093140BEE
:1026700084EC90E09093170B8093160B80EC90E025
:102680009093190B8093180B81EC90E090931B0BA7
:1026900080931A0B82EC90E090931D0B80931C0B9F
:1026A00086EC90E090931F0B80931E0B1092210BF1
:1026B0001092220B1092230B1092240B0895CF92AC
:1026C000DF92EF92FF920F931F93CF93DF937C01E2
:1026D0006A01EB0100E010E00C151D0571F0699135
:1026E000D701ED91FC910190F081E02DC701199582
:1026F000892B19F00F5F1F4FEFCFC801DF91CF91EA
:102700001F910F91FF90EF90DF90CF900895089563
:10271000883008F06DC0E82FF0E0EE0FFF1FEA5F91
:10272000FD4F7183608390E0FC013197E730F10544
:1027300090F5EE58FF4F0C94201E809169008C7F1D
:10274000842B80936900E89A089580916900440F72
:10275000551F440F551F837F842B80936900E99A8E
:1027600008958091690074E0440F551F7A95E1F750
:102770008F7C842B80936900EA9A08958091690088
:1027800066E0440F551F6A95E1F78F73842B8093A1
:102790006900EB9A089580916A008C7F842B809366
:1027A0006A00EC9A089580916A00440F551F440F07
:1027B000551F837F842B80936A00ED9A0895809142
:1027C0006A0024E0440F551F2A95E1F78F7C842B83
:1027D00080936A00EE9A089580916A0096E0440F13
:1027E000551F9A95E1F78F73842B80936A00EF9AB7
:1027F00008951F920F920FB60F9211240BB60F92ED
:102800002F933F934F935F936F937F938F939F93F8
:10281000AF93BF93EF93FF93E0910A02F0910B0205
:102820001995FF91EF91BF91AF919F918F917F91FA
:102830006F915F914F913F912F910F900BBE0F9031
:102840000FBE0F901F9018951F920F920FB60F9208
:1028500011240BB60F922F933F934F935F936F9377
:102860007F938F939F93AF93BF93EF93FF93E091E9
:102870000C02F0910D021995FF91EF91BF91AF916C
:102880009F918F917F916F915F914F913F912F9188
:102890000F900BBE0F900FBE0F901F9018951F92B8
:1028A0000F920FB60F9211240BB60F922F933F93F6
:1028B0004F935F936F937F938F939F93AF93BF9348
:1028C000EF93FF93E0910E02F0910F021995FF91A3
:1028D000EF91BF91AF919F918F917F916F915F9198
:1028E0004F913F912F910F900BBE0F900FBE0F9005
:1028F0001F9018951F920F920FB60F9211240BB6CE
:102900000F922F933F934F935F936F937F938F9388
:102910009F93AF93BF93EF93FF93E0911002F091D9
:1029200011021995FF91EF91BF91AF919F918F91F6
:102930007F916F915F914F913F912F910F900BBEBF
:102940000F900FBE0F901F9018951F920F920FB609
:102950000F9211240BB60F922F933F934F935F93D7
:102960006F937F938F939F93AF93BF93EF93FF9357
:10297000E0910602F09107021995FF91EF91BF9146
:10298000AF919F918F917F916F915F914F913F9107
:102990002F910F900BBE0F900FBE0F901F901895A8
:1029A0001F920F920FB60F9211240BB60F922F9316
:1029B0003F934F935F936F937F938F939F93AF93C7
:1029C000BF93EF93FF93E0910802F09109021995EC
:1029D000FF91EF91BF91AF919F918F917F916F91F7
:1029E0005F914F913F912F910F900BBE0F900FBEB3
:1029F0000F901F9018951F920F920FB60F921124EF
:102A00000BB60F922F933F934F935F936F937F93E8
:102A10008F939F93AF93BF93EF93FF93E091120235
:102A2000F09113021995FF91EF91BF91AF919F9192
:102A30008F917F916F915F914F913F912F910F9067
:102A40000BBE0F900FBE0F901F9018951F920F9204
:102A50000FB60F9211240BB60F922F933F934F9303
:102A60005F936F937F938F939F93AF93BF93EF93F6
:102A7000FF93E0911402F09115021995FF91EF91E7
:102A8000BF91AF919F918F917F916F915F914F9186
:102A90003F912F910F900BBE0F900FBE0F901F9084
:102AA000189508958ED0FDDF0E94A308C0E7D1E1FC
:102AB000FFDA2097E9F314DCFBCF1F920F920FB6D9
:102AC0000F9211242F933F938F939F93AF93BF93B4
:102AD0008091A60B9091A70BA091A80BB091A90B88
:102AE0003091A50B23E0230F2D3720F40196A11D73
:102AF000B11D05C026E8230F0296A11DB11D20932C
:102B0000A50B8093A60B9093A70BA093A80BB09353
:102B1000A90B8091AA0B9091AB0BA091AC0BB0913B
:102B2000AD0B0196A11DB11D8093AA0B9093AB0B29
:102B3000A093AC0BB093AD0BBF91AF919F918F91D0
:102B40003F912F910F900FBE0F901F9018952FB7A8
:102B5000F8946091A60B7091A70B8091A80B9091AF
:102B6000A90B2FBF08953FB7F8948091AA0B9091BD
:102B7000AB0BA091AC0BB091AD0B26B5A89B05C0DB
:102B80002F3F19F00196A11DB11D3FBF6627782F79
:102B9000892F9A2F620F711D811D911D42E0660FD2
:102BA000771F881F991F4A95D1F7089582309105A4
:102BB00038F0880F991F880F991F05970197F1F733
:102BC0000895789484B5826084BD84B5816084BDA5
:102BD00085B5826085BD85B5816085BDEEE6F0E096
:102BE000808181608083E1E8F0E0108280818260F2
:102BF0008083808181608083E0E8F0E08081816073
:102C00008083E1EBF0E0808184608083E0EBF0E0A2
:102C1000808181608083E1E9F0E08081826080834F
:102C2000808181608083E0E9F0E080818160808341
:102C3000E1EAF0E08081826080838081816080832E
:102C4000E0EAF0E0808181608083E1E2F1E0808170
:102C500082608083808181608083E0E2F1E0808116
:102C600081608083EAE7F0E08081846080838081F6
:102C7000826080838081816080838081806880839E
:102C80001092C1000895FC0182E0808384E081837A
:102C900086E0828386E3838387E0848388E085837C
:102CA0008CE0868387E387830895CF93DF93EC01DD
:102CB00061E08881FFD661E08981FCD661E089E02E
:102CC000F9D660E08A81F6D660E08B81F3D661E0C8
:102CD0008C81F0D661E08D81EDD661E08AE0EAD6A4
:102CE00060E08E81E7D660E08F81DF91CF91E2C610
:102CF000FF920F931F93CF93DF93EC0177FF06C0F2
:102D0000719561957109FF24F39401C0F12C8B0139
:102D1000613981E0780714F000E911E023E3209F96
:102D2000C001219F900D112460E570E054D789E027
:102D3000ABD5012B11F460E008C0FF2029F060E062
:102D40008881F1D661E004C061E08881ECD660E062
:102D50008981DF91CF911F910F91FF90E4C6FF927F
:102D60000F931F93CF93DF93EC0177FF06C071950C
:102D700061957109FF24F39401C0F12C8B01613935
:102D800081E0780714F000E911E023E3209FC001FF
:102D9000219F900D112460E570E01DD78AE074D565
:102DA000012B11F460E008C0FF2029F060E08C8165
:102DB000BAD661E004C061E08C81B5D660E08D8157
:102DC000DF91CF911F910F91FF90ADC60F931F938D
:102DD000CF93DF938C01EB0177FF03C0D195C195B1
:102DE000D10960E0F80180819ED660E0F801818120
:102DF0009AD6C139F1E0DF0714F0C0E9D1E023E34E
:102E00002C9FC0012D9F900D112460E570E0E3D64A
:102E100089E0DF91CF911F910F9136C50F931F93DA
:102E2000CF93DF938C01EB0177FF03C0D195C19560
:102E3000D10960E0F801848176D660E0F8018581EF
:102E400072D6C139F1E0DF0714F0C0E9D1E023E325
:102E50002C9FC0012D9F900D112460E570E0BBD622
:102E60008AE0DF91CF911F910F910EC5FC01838104
:102E7000E6D422E2AC01249FC001259F900D1124CD
:102E80000895FC018781DBD422E2AC01249FC001BC
:102E9000259F900D11240895CF93DF93DC0170E0FE
:102EA000FB01E058FE4FE4911496EC931497842FA5
:102EB00090E0FC01E058FE4FE4911596EC931597D5
:102EC0006A537E4FFB01C491D0E0CC0FDD1FCA5D79
:102ED000DD4FFE014591549117965C934E931697E2
:102EE000FC01EA53FE4F849190E0880F991F845FA4
:102EF0009D4FFC014591549119965C934E93189700
:102F0000FB016491E62FF0E0EE0FFF1FE05CFD4F48
:102F1000859194911B969C938E931A972F5F3F4FA8
:102F200049E3429FC001439F900D11248E38FFE674
:102F30009F0710F08DE89FE61D969C938E931C973B
:102F4000DF91CF9108950F931F93CF93DF93EC01FF
:102F5000EA85FB8580819C81892B8083EE81FF81BE
:102F600090818C8180958923808384E090E01EDEAF
:102F7000EE81FF8180819C81892B80838AE090E0B3
:102F800015DEEE81FF8190818C818095892380837D
:102F9000EA85FB8590818C81809589238083E885F3
:102FA000F98580819D81892311F080E02FC0DBDDD0
:102FB0004C855D858A0120E030E00855194E2F4F81
:102FC0003F4F060F171F281F391F0E871F87288B9B
:102FD000398BE885F98580819D81892359F4C3DD8A
:102FE0000E851F852889398906171707280739078D
:102FF00080F7DBCFB8DD2C853D85620F731F811D07
:10300000911D6E877F87888B998B81E0DF91CF91AF
:103010001F910F910895E2E7F0E080818D7F80831A
:103020000895CF92DF92EF92FF920F931F93CF9369
:10303000DF93EC0198DD0E851F85288939890617F5
:1030400017072807390710F4E6DF23C0E885F9855C
:1030500080819D818923E9F4DEDF85DD4C855D85F6
:103060008A0120E030E0CE84DF84E888F9880C19FA
:103070001D092E093F090D50110921093109060FBB
:10308000171F281F391F088319832A833B8381E078
:1030900001C080E0DF91CF911F910F91FF90EF90E1
:1030A000DF90CF900895B7DF1092A2001092A00099
:1030B0008BE08093A1001092A5001092A4000895C7
:1030C000CF93DF93EC017093AF0B6093AE0BEBDF0C
:1030D000CE01969587959695879501978F3F910597
:1030E00019F010F08FEF90E09093A9008093A80062
:1030F00080917200826080937200DF91CF91089579
:10310000CF93DF931F921F92CDB7DEB769837A8387
:103110001ADF69817A81882339F088E190E00F9085
:103120000F90DF91CF91CCCF0F900F90DF91CF9187
:1031300008951F920F920FB60F9211240BB60F92A3
:103140002F933F934F935F936F937F938F939F93AF
:10315000AF93BF93EF93FF93E091AE0BF091AF0B62
:103160001995FF91EF91BF91AF919F918F917F91B1
:103170006F915F914F913F912F910F900BBE0F90E8
:103180000FBE0F901F901895CF92DF92EF92FF9293
:103190000F931F93CF93DF938C01EB0168817981AB
:1031A0008A819B8120E03AEC4AE95BE327D5F8016C
:1031B000C080D180E280F380C20ED31EE41EF51ED3
:1031C000C082D182E282F382688379838A839B837F
:1031D000DF91CF911F910F91FF90EF90DF90CF90F3
:1031E00008958091E00B90E02091E10B821B910902
:1031F00008952091E10B8091E00B281750F4E22F05
:10320000F0E0EE51F44F808190E02F5F2093E10BCE
:1032100008958FEF9FEF0895E091E10B8091E00B0F
:10322000E81730F4F0E0EE51F44F808190E008951B
:103230008FEF9FEF08950895CF92DF92EF92FF9264
:103240000F931F93CF93DF937C01CB018A012091D1
:10325000BC0B222389F0EB016B01C40ED51ECC15EB
:10326000DD0561F06991D701ED91FC910190F0814C
:10327000E02DC7011995F3CF642F8AD1C801DF91E2
:10328000CF911F910F91FF90EF90DF90CF90089515
:10329000CF93DF931F92CDB7DEB769832091BC0B2C
:1032A0002223D1F02091BD0B203240F021E030E00C
:1032B000FC013383228380E090E014C08091BE0B38
:1032C000E82FF0E0E154F44F998190838F5F809371
:1032D000BE0B8093BD0B04C061E0CE01019658D1B6
:1032E00081E090E00F90DF91CF910895FC0113826F
:1032F000128248EE53E060E070E0448355836683B9
:10330000778380E395E09183808308951092E10BA9
:103310001092E00B1092BE0B1092BD0B7EC081E0AC
:103320008093BC0B6093DF0B1092BE0B1092BD0B11
:103330000895F5CF0F93062F21E04091BD0B6FEB61
:103340007BE08091DF0BCDD01092BE0B1092BD0BB5
:103350001092BC0B0F9108958F929F92AF92BF92E3
:10336000CF92DF92EF92FF920F931F93CF93DF9351
:10337000EC01F62ED42E48015901EE2009F1CFDFE1
:103380001E2D143008F013E01150B8F0E881F981D7
:1033900028E0129FB0011124A501940104C05695A4
:1033A0004795379527956A95D2F7CA01B9010190DB
:1033B000F081E02DCE011995E7CF60E0CE01BADFB4
:1033C0004D2D413208F040E22C2D62EE7BE08F2D36
:1033D00040D01092E10B8093E00BDF91CF911F91D1
:1033E0000F91FF90EF90DF90CF90BF90AF909F90A4
:1033F0008F900895CF92EF920F931F93C22EE12CDE
:1034000000E010E09801A8DF1F910F91EF90CF909E
:103410000895F0CF80EB9BE069CF10926F0C81E0B4
:1034200080936D0C10926C0C61E084E17CD361E0C0
:1034300085E179D3E9EBF0E080818E7F8083808124
:103440008D7F808388E48093B80085E48093BC00FE
:103450000895413208F043C090916F0C9111FCCF58
:1034600091E090936F0C20936D0C2FEF2093020C42
:103470001092470C240F2093460C90936E0C909161
:103480006E0C880F892B80936E0C80916C0C8130B0
:1034900061F410926C0C80916E0C8093BB00809153
:1034A000BC0083FDF8CF85EC01C085EE8093BC00A5
:1034B00080916F0C8130E1F38091470C841710F4F8
:1034C0004091470C28E43CE0FB01D9018A2F821B84
:1034D000841718F48D918193F9CF842F089580E09B
:1034E00008950F93413208F04AC090916F0C9111EA
:1034F000FCCF92E090936F0C00936D0C9FEF909334
:10350000020C1092470C4093460CFB0168E47CE0EF
:10351000DB019A2F961B941718F491919D93F9CF84
:1035200010926E0C90916E0C880F892B80936E0C0C
:1035300080916C0C813061F410926C0C80916E0C57
:103540008093BB008091BC0083FDF8CF85EC01C067
:1035500085EE8093BC00222321F080916F0C823095
:10356000E1F38091020C8F3F61F08091020C803278
:1035700051F08091020C803341F483E007C081E078
:1035800005C080E003C082E001C084E00F9108958F
:10359000613298F420916F0C243089F46093240CEC
:1035A000FC0186E29CE0DC012A2F281B261718F478
:1035B00021912D93F9CF80E0089581E0089582E074
:1035C000089585ED8093BC008091BC0084FDFCCF04
:1035D00010926F0C089585EC8093BC0010926F0CD4
:1035E00008951F920F920FB60F9211240BB60F92EF
:1035F0002F933F934F935F936F937F938F939F93FB
:10360000AF93BF93EF93FF938091B900887F80368B
:1036100009F49DC070F5883209F45CC090F48031E3
:1036200009F455C038F4882309F4F3C0883009F44C
:103630004EC0F2C0883109F44DC0803209F45EC03A
:10364000EBC0803409F469C050F4803309F456C0EB
:10365000883309F0E1C08093020CBDDFDDC0803506
:1036600009F44FC0883509F45DC0883409F0D4C02E
:10367000D2C0883909F4C3C0A8F4883709F467C0F8
:1036800038F4883609F463C0803709F460C0C4C0D8
:10369000883809F4B4C0803909F45FC0803809F073
:1036A000BBC05BC0803B09F482C038F4803A09F4A7
:1036B00066C0883A09F47BC0AFC0803C09F4A3C05F
:1036C000883C09F4A0C0883B09F486C0A5C080915D
:1036D0006E0C10C09091470C8091460C981770F5B5
:1036E000E091470C81E08E0F8093470CF0E0E85B9F
:1036F000F34F80818093BB0085EC82C08093020CE5
:103700008AC0E091470C81E08E0F8093470C809136
:10371000BB00F0E0E85BF34F80839091470C809111
:10372000460C6AC0E091470C81E08E0F8093470CF5
:103730008091BB00F0E0E85BF34F808380916D0CDB
:10374000811169C081E080936C0C84EA5DC083E0E4
:1037500080936F0C1092030CCFCF8091030C8032BA
:1037600008F04DC0E091030C81E08E0F8093030CB4
:103770008091BB00F0E0EC5FF34F8083BDCF2BDF87
:103780008091030C803230F4E091030CF0E0EC5FA8
:10379000F34F10826091030C70E0E091680CF0919F
:1037A000690C84E09CE019951092030C35C084E00C
:1037B00080936F0C1092250C1092240CE0916A0CEF
:1037C000F0916B0C19958091240C811105C081E05A
:1037D0008093240C1092260CE091250C81E08E0F32
:1037E0008093250CF0E0EA5DF34F80818093BB006D
:1037F0009091250C8091240C981708F47DCF85E8D2
:103800008093BC0009C085EC8093BC0010926F0CC3
:1038100003C01092020CD5DEFF91EF91BF91AF91E2
:103820009F918F917F916F915F914F913F912F91D8
:103830000F900BBE0F900FBE0F901F901895863300
:1038400008F0865320917B00982F9870277F922B49
:1038500090937B0087702091160290E4299F90013D
:103860001124822B80937C0080917A008064809365
:103870007A0080917A0086FDFCCF809178002091BB
:10388000790090E0922B08951F93CF93DF93182F28
:10389000EB0161E00FD1209711F460E004C0CF3F4D
:1038A000D10531F461E0812FDF91CF911F913BC1B0
:1038B000E12FF0E0E65CFE4F449150E0FA013197D1
:1038C000E231F10508F09AC0E758FF4FB9C184B55D
:1038D000806884BDC7BD97C084B5806284BDC8BD03
:1038E00092C080918000806880938000D09389008E
:1038F000C093880088C0809180008062809380009F
:10390000D0938B00C0938A007EC080918000886035
:1039100080938000D0938D00C0938C0074C0809100
:10392000B00080688093B000C093B3006CC08091F9
:10393000B00080628093B000C093B40064C08091F6
:103940009000806880939000D0939900C093980075
:103950005AC080919000806280939000D0939B0029
:10396000C0939A0050C0809190008860809390002E
:10397000D0939D00C0939C0046C08091A0008068B9
:103980008093A0008091A0008F7B8093A000D093B3
:10399000A900C093A80037C08091A00080628093E6
:1039A000A000D093AB00C093AA002DC08091A000CE
:1039B00088608093A000D093AD00C093AC0023C07A
:1039C00080912001806880932001D0932901C093C9
:1039D000280119C080912001806280932001D0933A
:1039E0002B01C0932A010FC0809120018860809331
:1039F0002001D0932D01C0932C0105C0C038D10502
:103A00000CF050CF4ACFDF91CF911F91089590E0F5
:103A1000FC013197E231F10508F04BC0E557FF4F4B
:103A20000FC1809180008F7703C0809180008F7DCF
:103A300080938000089580918000877FF9CF84B5BE
:103A40008F7702C084B58F7D84BD08958091B000CA
:103A50008F7703C08091B0008F7D8093B000089570
:103A6000809190008F7707C0809190008F7D03C078
:103A700080919000877F8093900008958091A000AE
:103A80008F7707C08091A0008F7D03C08091A00038
:103A9000877F8093A0000895809120018F7707C0D1
:103AA000809120018F7D03C080912001877F8093CA
:103AB00020010895CF93DF9390E0FC01E058FE4F82
:103AC0002491FC01EA53FE4F8491882349F190E050
:103AD000880F991FFC01E05CFD4FA591B4918A5DB0
:103AE0009D4FFC01C591D4919FB7611108C0F89416
:103AF0008C91209582238C93888182230AC0623026
:103B000051F4F8948C91322F309583238C938881D3
:103B1000822B888304C0F8948C91822B8C939FBF56
:103B2000DF91CF9108950F931F93CF93DF931F924F
:103B3000CDB7DEB7282F30E0F901E65CFE4F849167
:103B4000F901E058FE4F1491F901EA53FE4F049138
:103B50000023C1F0882319F0698359DF6981E02FC0
:103B6000F0E0EE0FFF1FEA5DFD4FA591B4919FB706
:103B7000F8948C91611103C01095812301C0812BB1
:103B80008C939FBF0F90DF91CF911F910F9108955C
:103B9000DB018F939F935AD0BF91AF91A29F800D6D
:103BA000911DA39F900DB29F900D11240895AA1B03
:103BB000BB1B51E107C0AA1FBB1FA617B70710F018
:103BC000A61BB70B881F991F5A95A9F7809590954A
:103BD000BC01CD01089597FB072E16F4009406D082
:103BE00077FD08D0E4DF07FC05D03EF49095819581
:103BF0009F4F0895709561957F4F0895A1E21A2E09
:103C0000AA1BBB1BFD010DC0AA1FBB1FEE1FFF1F80
:103C1000A217B307E407F50720F0A21BB30BE40BD0
:103C2000F50B661F771F881F991F1A9469F7609517
:103C30007095809590959B01AC01BD01CF010895D1
:103C4000EE0FFF1F0590F491E02D19940DD0A59F64
:103C5000900DB49F900DA49F800D911D1124089587
:103C60000790F691E02D1994A29FB001B39FC00177
:103C7000A39F700D811D1124911DB29F700D811D98
:103C80001124911D089540D008F481E00895E8942E
:103C900009C097FB3EF490958095709561957F4F94
:103CA0008F4F9F4F9923A9F0F92F96E9BB27939542
:103CB000F695879577956795B795F111F8CFFAF452
:103CC000BB0F11F460FF1BC06F5F7F4F8F4F9F4F83
:103CD00016C0882311F096E911C0772321F09EE8E1
:103CE000872F762F05C0662371F096E8862F70E047
:103CF00060E02AF09A95660F771F881FDAF7880F21
:103D00009695879597F90895990F0008550FAA0B76
:103D1000E0E8FEEF16161706E807F907C0F01216DE
:103D20001306E407F50798F0621B730B840B950BE1
:103D300039F40A2661F0232B242B252B21F4089536
:103D40000A2609F4A140A6958FEF811D811D0895D3
:103D50006F927F928F929F92AF92BF92CF92DF929B
:103D6000EF92FF920F931F93CF93DF93EC01CB0160
:103D7000209779F4DF91CF911F910F91FF90EF90F1
:103D8000DF90CF90BF90AF909F908F907F906F907B
:103D9000CCC0FE01E60FF71F9E0122503109E21749
:103DA000F30708F4A8C0D9010D911C9111970617CB
:103DB0001707B0F00530110508F49BC0A801445066
:103DC00051094617570708F494C002501109061B01
:103DD000170B019311936D937C93CF013ED189C052
:103DE0005B01A01AB10A4E01800E911EA091720CC7
:103DF000B091730C612C712C60E070E0109709F4A5
:103E000049C0A815B905C9F5ED90FC901197670157
:103E100042E0C40ED11CCA14DB0478F147018A18B1
:103E20009B08640142E0C40ED11C1296BC9012970C
:103E30001396AC91B5E0CB16D10440F0B282A383C7
:103E400091828082D9018D939C9309C00E5F1F4F90
:103E50000E0D1F1DF90111830083EB2DFA2F611543
:103E6000710531F0DB011396FC93EE93129741C07C
:103E7000F093730CE093720C3CC06D917C911197A0
:103E80006616770608F43B01BD0112960D90BC91B1
:103E9000A02DB4CF6091700C7091710C68157905EC
:103EA000E9F468167906D0F44091000250910102BD
:103EB0004115510541F44DB75EB760910402709110
:103EC0000502461B570BE417F507A8F4F093710C95
:103ED000E093700CF901918380830BC026D07C01A4
:103EE000009749F0A801BE0117D0CE01B6D0C70196
:103EF00004C0CE0102C080E090E0DF91CF911F911D
:103F00000F91FF90EF90DF90CF90BF90AF909F9078
:103F10008F907F906F900895FB01DC0102C00190AB
:103F20000D9241505040D8F70895CF93DF938230DF
:103F3000910510F482E090E0E091720CF091730C26
:103F400020E030E0A0E0B0E0309739F140815181CD
:103F500048175907B8F04817590771F482819381BF
:103F6000109729F013969C938E9312972CC09093E0
:103F7000730C8093720C27C02115310531F0421764
:103F8000530718F0A901DB0101C0EF019A01BD013F
:103F9000DF010280F381E02DD7CF21153105F9F043
:103FA000281B390B2430310580F48A819B816115EF
:103FB000710521F0FB019383828304C09093730CFD
:103FC0008093720CFE01329644C0FE01E20FF31F93
:103FD0008193919322503109398328833AC02091EB
:103FE000700C3091710C232B41F42091020230911E
:103FF00003023093710C2093700C209100023091D9
:1040000001022115310541F42DB73EB7409104025C
:1040100050910502241B350BE091700CF091710C4E
:10402000E217F307A0F42E1B3F0B2817390778F08F
:10403000AC014E5F5F4F2417350748F04E0F5F1FEE
:104040005093710C4093700C8193919302C0E0E007
:10405000F0E0CF01DF91CF910895CF93DF930097E8
:1040600009F487C0FC01329713821282C091720C4E
:10407000D091730C209781F420813181280F391F52
:104080008091700C9091710C8217930779F5F093E1
:10409000710CE093700C6DC0DE0120E030E0AE17D3
:1040A000BF0750F412964D915C9113979D014115F5
:1040B000510509F1DA01F3CFB383A2834081518125
:1040C000840F951F8A179B0771F48D919C9111970E
:1040D000840F951F02969183808312968D919C91F7
:1040E0001397938382832115310529F4F093730C80
:1040F000E093720C3EC0D9011396FC93EE93129795
:104100004D915D91A40FB51FEA17FB0779F48081EB
:104110009181840F951F0296D90111969C938E93DD
:104120008281938113969C938E931297E0E0F0E046
:104130008A819B81009719F0FE01EC01F9CFCE0135
:10414000029628813981820F931F2091700C309143
:10415000710C2817390769F4309729F41092730C01
:104160001092720C02C013821282D093710CC09311
:0C417000700CDF91CF910895F894FFCF00
:10417C000000740C80008713871387138713871331
:10418C00871387138713017374645F6D7367732FC1
:10419C0054696D6500636437313636633734633583
:1041AC00353263333131666263633266653561374C
:1041BC00626332383900726F7373657269616C5F58
:1041CC006D7367732F546F706963496E666F00303F
:1041DC006164353166383866633434383932663860
:1041EC00633130363834303737363436303035008A
:1041FC00726F7373657269616C5F6D7367732F4C4B
:10420C006F67003131616264373331633235393372
:10421C00333236316364363138336264313264366A
:10422C003239350039663065393862646136353972
:10423C0038313938366464663533616661376134D8
:10424C0030653439007374645F6D7367732F496E16
:10425C00743136003835323435383665333466626D
:10426C006437636231633038633566356631636158
:10427C00306535370067656F6D657472795F6D7386
:10428C0067732F566563746F723300346138343240
:10429C0062363566343133303834646332623130EF
:1042AC0066623438346561376631370067656F6D27
:1042BC00657472795F6D7367732F547769737400CB
:1042CC003966313935663838313234366664666170
:1042DC00323739386431643365656263613834610F
:1042EC00004D6573736167652066726F6D20646540
:1042FC00766963652064726F707065643A206D65D1
:10430C007373616765206C61726765722074686194
:10431C006E206275666665722E0061726475696ED8
:10432C006F2F736F6E61725F310061726475696EAD
:10433C006F2F736F6E61725F320061726475696E9C
:10434C006F2F736F6E61725F330061726475696E8B
:10435C006F2F6D6F746F725F72696768745F6375CE
:10436C007272656E740061726475696E6F2F6D6F19
:10437C00746F725F6C6566745F63757272656E7470
:10438C000061726475696E6F2F6D6F746F725F72FE
:10439C00696768745F7370656564006172647569E0
:1043AC006E6F2F6D6F746F725F6C6566745F737078
:1043BC006565640061726475696E6F2F656E636FFD
:1043CC006465725F6C6566745F76616C75650061BF
:1043DC00726475696E6F2F656E636F6465725F7260
:1043EC00696768745F76616C756500617264756984
:1043FC006E6F2F616363656C0061726475696E6FBB
:10440C002F6779726F00726F7373657269616C5F7D
:10441C006D7367732F52657175657374506172613A
:10442C006D000000000062018401CA01CD01000092
:10443C0000005703D001A802AB0200000000DF030C
:10444C00AE02F202F502000000000B04B304F80205
:10445C00FB0200000000FE02070314031703000018
:10446C0000004A0723081A031D0300000000770709
:10447C004A0820032303000000003B034D035103B3
:10448C005403000000002506920B360300000000C8
:10449C00EE115F1343115C114E11CD1100000000A1
:0C44AC0048191C19F118F9180C191B19FB
:00000001FF
